:020000040800F2
:10000000FCFF002015170000F9160000F91600008B
:10001000F9160000F9160000F9160000F9160000A4
:10002000F9160000F9160000F9160000F916000094
:10003000F9160000F9160000F9160000F916000084
:10004000F9160000F9160000F9160000F916000074
:10005000F9160000F9160000F9160000F916000064
:10006000F9160000F9160000F9160000F916000054
:10007000F9160000F9160000F9160000F916000044
:10008000F9160000F9160000F9160000F916000034
:10009000F9160000F9160000F9160000F916000024
:1000A000F9160000F9160000F9160000F916000014
:1000B000F9160000F9160000F9160000F916000004
:1000C000F9160000F9160000F9160000F9160000F4
:1000D000F9160000F9160000F9160000F9160000E4
:1000E000F9160000F9160000F9160000F9160000D4
:1000F000F9160000F9160000F9160000F9160000C4
:10010000F9160000F9160000F9160000F9160000B3
:10011000F9160000F9160000F9160000F9160000A3
:10012000F9160000F9160000F9160000F916000093
:10013000F9160000F9160000F9160000F916000083
:10014000F9160000F9160000F9160000F916000073
:1001500081B000F214010A6800F21801096809046C
:1001600042EA0101084601B07047FFFF81B000F28A
:1001700018010A68C2F3400181F00101C9B2C8B296
:1001800001B0704783B0CDF800E000F0FF031A091A
:10019000104603F00F02134614E0194A02921FE0C2
:1001A000184A02921CE0184A029219E0174A029279
:1001B00016E0174A029213E0164A029210E0164A1D
:1001C00002920DE00028E8D00128E9D00228EAD008
:1001D0000328EBD00428ECD00528EDD00628EED07B
:1001E000012212B29A40ADF8042002980A46BDF8E6
:1001F000041000F06FFADDF800E003B0704700BFB4
:1002000000080140000C01400010014000140140B2
:1002100000180140001C0140002001400148006816
:10022000704700BF2400002081B0194900EA010195
:10023000084600220EE0042022E0082020E01020E2
:100240001EE020201CE040201AE0802018E040F250
:10025000001015E00F498842EDD00F498842ECD0DC
:100260000E498842EBD00E498842EAD00D498842B7
:10027000E9D00D498842E8D00C498842E7D01046C1
:100280000B49096841EA000209490A6001B0704758
:1002900000FCFFFF00080140000C0140001001407D
:1002A0000014014000180140001C014000200140E2
:1002B0001810024082B0CDF800E0034619460191C3
:1002C000FFF7ACFF40F2E83100FB01F201990A6050
:1002D0001F490978C1F30311C8B21E4909180878EB
:1002E000C0B21A1D1968C140116019490988C1F3CB
:1002F000022188B2174909180878C0B203F208022F
:10030000191D0968C140116011490988C1F3C22152
:1003100088B2104909180878C0B203F20C02191DFE
:100320000968C14011600A490988C1F3813188B266
:10033000094909180978C8B203F2100203F20C0146
:100340000968B1FBF0F11160DDF800E002B0704720
:100350000410024044190000EC0D000081B0CDF8FB
:1003600000E0012252B23E490A6000F268010B68C7
:100370006FF0006103EA0102144603F00061C90E48
:100380000B4602F00041B1F1004F02D135490A6835
:1003900001E035490A6804F47021090C0E464FF655
:1003A000FF7104EA01010D4604F44011B1F5401F4C
:1003B0000DD16FF0706102EA01010E462A490A6808
:1003C0006FF070610A4028490A60324616E004F472
:1003D0008011B1F5801F09D14FF00301B140C9432D
:1003E00002EA010141F070610A4607E0610D09016E
:1003F00005FA01F1C9430A4042F070622BB1610D68
:10040000090105FA01F10A43FFE704F00041B1F1E7
:10041000004F02D113490A6001E013490A6040F21B
:10042000000A81464FEA8A0109EB01010968B1F12E
:10043000FF3F10D009F134014FEA8A03C918096857
:100440000A4609EB0301096808461146FFF79AFEC0
:100450000AF1010AE6E7DDF800E001B0704700BFED
:10046000000342421C0001400400014081B0CDF86D
:1004700000E04FF000021949884207D118490B6883
:1004800018490A6818490A601C460BE01749884257
:1004900007D117490B6817490A6813490A601C46B7
:1004A00000E0144614490C6003461846FFF75EFE50
:1004B00070B91149096851B12CB905200A4C24685A
:1004C000A047002005E0611E08460446FFE7ECE770
:1004D0000120DDF800E001B0704700BF005400408B
:1004E000000000202C0000202800002000580040C0
:1004F00004000020300000200800002081B0CDF86A
:1005000000E00B46FFF724FE00EA03029A4240F2A5
:10051000000200D10122D0B2DDF800E001B0704746
:1005200088B0CDF800E00E46554B98420DD101241D
:1005300064B2544B1C60544C544B1C60544C554B8F
:100540001C60554C554B1C600FE0554B98420CD12C
:10055000012464B2534B1C60534C4C4B1C60534CF5
:100560004C4B1C60524C4D4B1C6001960290104647
:10057000FFF7F4FE0298019E031D1B689CB26FF00A
:100580003F0304EA03039DB203AB01901846FFF753
:1005900091FE0198059F059C464BB4FBF3F399B27D
:1005A0009BB245EA0304A4B2031D1C600024036847
:1005B00064F30003036000223F4B9E4212D8730095
:1005C000B7FBF3F4A4B2042C02D204231C46FFE7C9
:1005D00042EA04039AB200F220044B1C9BB223604F
:1005E00091B23FE0032306FB03F4B7FBF4F31FFAD9
:1005F00083F8192306FB03F5B7FBF5F31FFA83F91C
:1006000008FB04F409FB05F33C1BFB1A9C4205D2D2
:1006100003237343B7FBF3F4A4B206E01923734337
:10062000B7FBF3F4A4B244F4804440F6FF7304EA49
:10063000030313B944F00104FFE744F400439BB201
:100640001A4392B200F2200540F22C1301FB03F48E
:10065000A4B240F2E833B4FBF3F39BB25B1C9BB251
:100660002B6091B200F21C03196000230360012487
:10067000036864F300030360DDF800E008B070472E
:1006800000540040D4034242450B000034000020D7
:10069000FFFFFFFF380000208D0C00003C00002011
:1006A00000580040D8034242A50B0000FFFFFFFFA7
:1006B000690C000040420F00A086010081B0016873
:1006C000C1F3801001B0704781B00168C1F34010E0
:1006D00001B0704781B0CDF800E08CB21546774B81
:1006E00000EA03031E461846FFF79EFDB4F1FF0F14
:1006F0000CD1734B9D4203D14FF033333360D9E0BB
:10070000422D03D14FF044333360D3E04FF6FF73F3
:100710009C4214D16A4B9D4207D14FF03333336072
:10072000341D4FF033332360C4E0422D07D14FF026
:1007300044333360341D4FF044332360BAE000216A
:10074000002005F001030BB100211DE005F00203BC
:1007500033B105F4C0730BB1082100E0042113E0AC
:1007600005F0040333B105F020030BB1042100E0D0
:10077000002109E005F0080333B105F020030BB1B7
:100780000C2100E00821FFE74E4B05EA03030BB103
:10079000032009E005F400730BB1022004E005F426
:1007A00080630BB10120FFE705F00C030BB101439F
:1007B000FFE704F0FF039BB2002B3BD0376800201B
:1007C0001FFA84F832462E4608282CD24FF0010337
:1007D00003FA00F408EA0403A34222D185004FF093
:1007E0000F03AB40DB4307EA030401FA05F344EAD5
:1007F00003031D4606F48173B3F5817F05D102F230
:1008000014044FF001038340236006F08203822B1F
:1008100005D102F210044FF00103834023602F46FC
:10082000FFE7401CD0E717601FFA88F00F463146FB
:10083000164602E00F462946A0B2B0F1FF0F39D9A3
:10084000331DD3F800800022082A30D202F20804B7
:100850004FF0010303FA04F400EA0403A34224D195
:1008600095004FF00F03AB40DB4308EA030807FA9B
:1008700005F348EA030801F48173B3F5817F07D1DA
:1008800006F2140502F208044FF00103A3402B60A6
:1008900001F08203822B07D106F2100502F2080450
:1008A0004FF00103A3402B60FFE7521CCCE7331D40
:1008B000C3F80080DDF800E001B0704700FCFFFFE6
:1008C000140008000008080083B0CDF800E00346DB
:1008D0004FF0000026498B4206D126490C68264974
:1008E0000A6826490A600BE025498B4207D1254951
:1008F000086825490A6821490A60044600E0044660
:1009000022490C60019402931846FFF7AFFD029B49
:10091000019C10B94FF6FF7025E00122196862F3BF
:100920000821196003F214010A68C2F3402111B1D1
:100930004FF6FF7017E025461C4615492046FFF785
:10094000DDFD78B91149096859B135B906200B4C5C
:100950002468A0474FF6FF7005E0691E084605466B
:10096000FFE7EAE70020DDF800E003B0704700BFD2
:1009700000540040000000202C000020280000202F
:100980000058004004000020300000200800002033
:100990000100030082B0CDF800E0029E4FF0000598
:1009A000564CA04206D1564C2768564C2568564CEA
:1009B00025600AE0554CA04206D1554C2768554C9D
:1009C0002568514C256000E02F46534C276000F20B
:1009D00010054C00A4B22C60B94607469046354637
:1009E0001E464E493846FFF789FD88B94A4C2468AF
:1009F0006CB1B9F1000F06D10420434C2468A04724
:100A00004FF6FF7076E0A9F101008146FFE7E8E7C5
:100A10000020019729463746019E7C1EA04226D21F
:100A200006F2100508EB000424782C603A4CD4F848
:100A3000009082460D463A493046FFF75FFD88B97F
:100A4000354C24686CB1B9F1000F06D104202E4C4E
:100A50002468A0474FF6FF704CE0A9F101008146E1
:100A6000FFE7E8E70AF1010420462946D5E706F248
:100A7000100508EB000424782C60274C27680D46ED
:100A800028493046FFF73AFD70B9234C246854B129
:100A900037B904201C4C2468A0474FF6FF7029E0AA
:100AA000781E0746FFE7EBE7012D05D101253468E5
:100AB00065F3492434601CE00125346865F308249B
:100AC0003460154C2768354617492846FFF716FD50
:100AD00078B9114C24685CB137B904200A4C2468F9
:100AE000A0474FF6FF7005E07C1E20460746FFE753
:100AF000EAE70020DDF800E002B070470054004053
:100B0000000000202C000020280000200058004099
:100B100004000020300000200800002082000700B0
:100B200080000700840007000100030081B0026814
:100B3000C2F3401101B9FAE7011D096888B201B09A
:100B40007047FFFF81B0CDF800E00348FFF7BCFE1F
:100B5000DDF800E001B070470054004081B0CDF8EE
:100B600000E00348FFF7B0FDDDF800E001B070479A
:100B70000044004081B0CDF800E00348FFF7D6FF05
:100B8000DDF800E001B070470044004081B0CDF8CE
:100B900000E00348FFF792FDDDF800E001B0704788
:100BA0000038014081B0CDF800E00348FFF78CFE2B
:100BB000DDF800E001B070470058004081B0CDF88A
:100BC00000E00348FFF7B2FFDDF800E001B0704736
:100BD0000038014081B0CDF800E00348FFF774FD14
:100BE000DDF800E001B070470038014081B0CDF879
:100BF00000E00348FFF762FDDDF800E001B0704758
:100C00000044004081B0CDF800E0044A89B2FFF70B
:100C100061FDDDF800E001B0704700BF140008007E
:100C200081B0CDF800E00348FFF74EFDDDF800E0AD
:100C300001B070470050004081B0CDF800E003489B
:100C4000FFF774FFDDF800E001B07047005000408E
:100C500081B0CDF800E04FF0420289B2FFF73AFDD3
:100C6000DDF800E001B0704781B0CDF800E008B4D5
:100C700013460A46C1B20448FFF78CFE01B0DDF806
:100C800000E001B0704700BF0058004081B0CDF8CF
:100C900000E008B413460A46C1B20448FFF77AFEE2
:100CA00001B0DDF800E001B0704700BF0054004023
:100CB00081B0CDF800E00348FFF700FDDDF800E06B
:100CC00001B070470050004081B0CDF800E003480B
:100CD000FFF7F4FCDDF800E001B070470048004089
:100CE00081B0CDF800E00348FFF7EEFCDDF800E04E
:100CF00001B070470048004081B0CDF800E00348E3
:100D0000FFF714FFDDF800E001B070470048004035
:100D100081B0CDF800E00348FFF708FFDDF800E000
:100D200001B07047004C004081B0CDF800E00A46A9
:100D300001460348FFF7F4FBDDF800E001B070471F
:100D40000054004081B0CDF800E00348FFF7B6FC46
:100D5000DDF800E001B07047004C004081B0CDF8F4
:100D600000E00348FFF7B0FCDDF800E001B0704799
:100D7000004C004001490860704700BF9C8121423F
:100D800001490860704700BF98812142014908600D
:100D9000704700BF9481224282B0CDF800E040F25B
:100DA0000004ADF80440054C2468A047BDF9044098
:100DB000044320B2DDF800E002B0704714000020C8
:100DC00082B0CDF800E040F20004ADF80440064CDB
:100DD0002468A047BDF9041041EA000000B2DDF824
:100DE00000E002B0704700BF1000002002040608B7
:100DF00044F67F77C0F212077F1EFDD100BF00BF0F
:100E000000BF00BF00BF704701490860704700BFC6
:100E10009881224201490860704700BFA801224220
:100E200001490860704700BFB4812242014908604F
:100E3000704700BF8801224201490860704700BF27
:100E40008001214201490860704700BFB001224281
:100E500001490860704700BFAC01224201490860A7
:100E6000704700BF9001214281B0CDF800E00168D9
:100E700008460449FFF758FF0020DDF800E001B004
:100E8000704700BF7818000081B0CDF800E001681D
:100E900008460449FFF748FF0020DDF800E001B0F4
:100EA000704700BF7818000081B0CDF800E0A9E0DD
:100EB000012905D140F220016548FFF7C9FE04E091
:100EC00040F220016248FFF79DFEBBE0012905D1F9
:100ED00040F208015F48FFF7BBFE04E040F2080162
:100EE0005C48FFF78FFEADE0012905D144F2000117
:100EF0005948FFF7ADFE04E044F200015648FFF701
:100F000081FE9FE0012905D140F200415148FFF7E1
:100F10009FFE04E040F200414E48FFF773FE91E06F
:100F2000012905D140F600014A48FFF791FE04E08F
:100F300040F600014748FFF765FE83E0012905D12F
:100F400041F200014348FFF783FE04E041F2000153
:100F50004048FFF757FE75E0012905D141F2000135
:100F60003D48FFF775FE04E041F200013A48FFF703
:100F700049FE67E0012905D140F600013648FFF738
:100F800067FE04E040F600013348FFF73BFE59E0FE
:100F9000012905D140F240012F48FFF759FE04E036
:100FA00040F240012C48FFF72DFE4BE0012905D10E
:100FB00040F220012848FFF74BFE04E040F22001F8
:100FC0002548FFF71FFE3DE0012905D140F2400111
:100FD0002248FFF73DFE04E040F240011F48FFF7C2
:100FE00011FE2FE0012905D140F280011B48FFF7D7
:100FF0002FFE04E040F280011848FFF703FE21E0D5
:10100000012020E000283FF453AF01283FF45EAFF9
:1010100002283FF469AF03283FF474AF04283FF47B
:101020007FAF05283FF48AAF06283FF495AF072825
:10103000A0D00828ACD00928B8D00A28C4D00B28E2
:10104000D0D0DDE70020DDF800E001B0704700BF40
:10105000000801400010014000140140000C014054
:10106000011D0A6801490A60704700BF2000002086
:10107000026806490A60011D0A6805490A6000F213
:1010800008010A6803490A60704700BF1000002089
:10109000140000201800002081B0CDF800E0A9E085
:1010A000012905D140F210016548FFF7D1FD04E0A8
:1010B00040F210016248FFF7A5FDBBE0012905D110
:1010C00040F204015F48FFF7C3FD04E040F2040171
:1010D0005C48FFF797FDADE0012905D142F2000120
:1010E0005948FFF7B5FD04E042F200015648FFF70A
:1010F00089FD9FE0012905D140F200415148FFF7E9
:10110000A7FD04E040F200414E48FFF77BFD91E06F
:10111000012905D140F600014A48FFF799FD04E096
:1011200040F600014748FFF76DFD83E0012905D136
:1011300041F200014348FFF78BFD04E041F200015A
:101140004048FFF75FFD75E0012905D140F201013C
:101150003B48FFF77DFD04E040F201013848FFF70E
:1011600051FD67E0012905D140F200413648FFF703
:101170006FFD04E040F200413348FFF743FD59E0C2
:10118000012905D140F200212F48FFF761FD04E05D
:1011900040F200212C48FFF735FD4BE0012905D135
:1011A00040F200112848FFF753FD04E040F200111F
:1011B0002548FFF727FD3DE0012905D140F2400118
:1011C0002248FFF745FD04E040F240011F48FFF7C9
:1011D00019FD2FE0012905D140F280011B48FFF7DE
:1011E00037FD04E040F280011848FFF70BFD21E0D5
:1011F000012020E000283FF453AF01283FF45EAF08
:1012000002283FF469AF03283FF474AF04283FF489
:101210007FAF05283FF48AAF06283FF495AF072833
:10122000A0D00828ACD00928B8D00A28C4D00B28F0
:10123000D0D0DDE70020DDF800E001B0704700BF4E
:10124000000801400010014000140140000C014062
:1012500001490860704700BFA88122420149086027
:10126000704700BFA801224201490860704700BFD3
:10127000B081224201490860704700BFB881224214
:1012800001490860704700BFAC0122420149086073
:10129000704700BFB001224201490860704700BF9B
:1012A000B081224201490860704700BF9881214205
:1012B00001490860704700BFA081224201490860CF
:1012C000704700BFA481224201490860704700BFF7
:1012D0008C01224201490860704700BF94012142FD
:1012E00001490860704700BF9C81214281B0CDF860
:1012F00000E0B0F5486F02D240F6804008E043F2CB
:10130000CE11884202D943F2CE1001E081B288B2F8
:10131000A0F5486292B23221B2FBF1F1C9B20020CD
:1013200000F04CF8DDF800E001B0704781B0CDF876
:1013300000E00F49884203DD40F2B04000B208E00F
:101340000C49884203DA43F27E6000B201E0404279
:1013500000B2A0F5966212B2322109B292FBF1F10D
:10136000C9B2012000F02AF8DDF800E001B07047B2
:1013700050FBFFFF50C9FFFF81B0CDF800E05FFADE
:1013800081F95FFA82FA0FE05FFA8AF15FFA89F079
:10139000FFF782FE0DE05FFA8AF15FFA89F0FFF74E
:1013A00083FD06E0012004E00028EDD00128F2D002
:1013B000F8E7DDF800E001B07047FFFF82B0CDF83C
:1013C00000E001AA1070521C1170FFF7F9FC01AB8C
:1013D000054A127819460123D0B20222FFF7DCFC3D
:1013E000DDF800E002B070471C00002081B0CDF8AD
:1013F00000E00020084C2468A047FFF7F9FCFFF745
:10140000F7FC0120044C2468A047FFF7F1FCDDF84D
:1014100000E001B0704700BF2000002081B0CDF88F
:1014200000E00446054B1A700846FFF721FE2046EF
:10143000FFF716FEDDF800E001B070471C00002049
:1014400081B0CDF800E08B4609E05846FFF71CFD5F
:101450000AE05846FFF708FD06E0012004E00028F6
:10146000F3D00128F5D0F8E7DDF800E001B07047CF
:1014700081B01548006840F001011348016013492C
:101480001348016010480168124801400E4801608D
:101490000D4801686FF4802001400B4801600C4842
:1014A00001686FF4FE0001400948016006480168C8
:1014B0006FF0A0500140044801604FF00001064861
:1014C000016001B0704700BF001002400000FFF053
:1014D00004100240FFFFF6FE2C10024081B01CF801
:1014E000019B0BF8019BBBEB0A0FF8D101B07047D1
:1014F00081B0CDF800E040F680415148018040F6CF
:101500008040FFF7F3FE48F2FF67C0F2933700BF59
:1015100000BF7F1EFDD100BF00BF00BF41F6466186
:101520004748018041F64660FFF7E0FE48F2FF675A
:10153000C0F2933700BF00BF7F1EFDD100BF00BFC8
:1015400000BF42F6E0613E48018042F6E060FFF7EE
:10155000CDFE48F2FF67C0F293377F1EFDD100BF7A
:1015600000BF00BF00BF00BF41F6466134480180A4
:1015700041F64660FFF7BAFE48F2FF67C0F29337C4
:101580007F1EFDD100BF00BF00BF00BF00BF4FF6F0
:10159000562109B22B4801804FF6562000B2FFF7C2
:1015A000C5FE48F2FF67C0F293377F1EFDD100BF32
:1015B00000BF00BF00BF00BF4EF2D45109B22148A6
:1015C00001804EF2D45000B2FFF7B0FE48F2FF6740
:1015D000C0F2933700BF00BF7F1EFDD100BF00BF28
:1015E00000BF4DF2D64109B2164801804DF2D640F7
:1015F00000B2FFF79BFE48F2FF67C0F2933700BFCF
:1016000000BF7F1EFDD100BF00BF00BF4EF2D4510E
:1016100009B20C4801804EF2D45000B2FFF786FEAA
:1016200048F2FF67C0F293377F1EFDD100BF00BFB5
:1016300000BF00BF00BFDDF800E001B0704700BF91
:101640000C0000200E00002081B0CDF800E0002248
:1016500001210020FFF790FE094801460020FFF716
:10166000EFFE44F67F77C0F212077F1EFDD100BF68
:1016700000BF00BF00BF00BFDDF800E001B0704751
:101680006C19000081B0CDF800E0312209490A4808
:10169000FFF7C4FEFFF7AAFE042040F00200C0B22C
:1016A00040F00100C1B20420FFF788FEDDF800E041
:1016B00001B0704760190000E418000081B04FF0DD
:1016C00000094FF0000CBDEB0A0F04DCBDEB0B0F63
:1016D00001DBD446EA464BF8049BBBEB0A0FFAD178
:1016E000BCEB0A0F05DDE246D9F800B00BF1040BA4
:1016F000F1E701B07047FFFF81B0FEE701B070472E
:1017000081B002490248016001B0704740190100F0
:101710002400002000F00EF800F06AF9FFF7F0FF57
:1017200000F026F9FFF790FFFFF7ACFFFFF7E0FEB0
:10173000FCE7FEE781B0CDF800E0464A464B474C57
:1017400047494BF68030814206D94648006840F050
:1017500002014448016011E045F6C050814206D9BB
:101760004048006840F001013E48016006E03D4805
:1017700001686FF0070001403A480160FFF778FE0A
:101780003948036039480460394802EA00013948A1
:10179000016002F0010040B119463648006800F0CF
:1017A0000200002800D1F8E700E0194602F480307A
:1017B00040B10B462F48006800F40030002800D1EB
:1017C000F8E700E00B4602F0805068B12948006855
:1017D00040F08051274801602648006800F0005022
:1017E000002800D1F8E7FFE702F0806078B12148D7
:1017F000006840F080611F48016011461A461D488C
:10180000006800F00060002800D1F8E701E0114610
:101810001A4601F0807070B11648006840F080717F
:101820001448016011461348006800F0007000B9C8
:10183000F9E70A46FFE70C48006800F00C01900049
:1018400000F00C00814200D0F5E7DDF800E001B0C7
:10185000704700BF8100010502841D00440601009D
:101860004019010000200240041002402C100240E8
:10187000FFFF0F00001002401600000017000000DC
:10188000FFFFFFFF0000000000000000000000005C
:101890000000000000000000000000000000000048
:1018A0000000000000000000000000002808000008
:1018B00028080000000000000000000000000000F8
:1018C0000000000000000000000000000000000018
:1018D0000000000000000000000000000000000008
:1018E000020000005D0E00002D0E0000210E000021
:1018F000150E0000510E0000450E0000390E0000CC
:1019000051120000BD120000B1120000A51200002B
:10191000E1120000FFFFFFFFFFFFFFFFFFFFFFFFE0
:10192000FFFFFFFFFFFFFFFFFFFFFFFFFFFFFFFFC7
:10193000FFFFFFFFFFFFFFFFFFFFFFFFFFFFFFFFB7
:10194000FFFFFFFF00000000010203040102030487
:101950000607080900000000000000000000000069
:10196000450B00008D0C0000FFFFFFFFA08601006B
:1019700000B5DFF814B0DFF814A0DFF814C0FFF7EB
:10198000ADFD00BD704700BF000000200C0000202E
:1019900054190000FFFFFFFFFFFFFFFFFFFFFFFFE6
:1019A000FFFFFFFFFFFFFFFFFFFFFFFFFFFFFFFF47
:1019B000FFFFFFFFFFFFFFFFFFFFFFFFFFFFFFFF37
:1019C000FFFFFFFFFFFFFFFFFFFFFFFFFFFFFFFF27
:1019D000FFFFFFFFFFFFFFFFFFFFFFFFFFFFFFFF17
:1019E000FFFFFFFFFFFFFFFFFFFFFFFFFFFFFFFF07
:1019F00000B5DFF810B0DFF810A0FFF75FFE00BD04
:101A0000704700BF0000002040000020FFFFFFFFE4
:00000001FF
